:020000002128B5
:10000800A000030EA100031383128C1A5A20210E9C
:100018008300A00E200E09009007303431343234AA
:10002800333434343534363437343834393441346D
:10003800423443344434453446340313831626305B
:100048009800031383129030980003138316193015
:100058009900031383169A0140308B00031383160B
:1000680020308C008B17831203132430B0005930D2
:10007800B1000D304E200A304E20300862204E204C
:1000880030085F204E20310862204E2031085F2062
:100098004E203D288B1303138312990003138316F4
:1000A800981C54288B178312031308000313831218
:1000B8001A08A80008000F3910200800A200220E14
:0600C8000F3910200800B2
:04400E00F420FF3F5C
:00000001FF
